{
  "_format": "hh-sol-artifact-1",
  "contractName": "Staking",
  "sourceName": "contracts/staking.sol",
  "abi": [
    {
      "anonymous": false,
      "inputs": [
        {
          "indexed": true,
          "internalType": "address",
          "name": "user",
          "type": "address"
        },
        {
          "indexed": false,
          "internalType": "uint256",
          "name": "reward",
          "type": "uint256"
        }
      ],
      "name": "RewardsClaimed",
      "type": "event"
    },
    {
      "anonymous": false,
      "inputs": [
        {
          "indexed": true,
          "internalType": "address",
          "name": "user",
          "type": "address"
        },
        {
          "indexed": false,
          "internalType": "uint256",
          "name": "amount",
          "type": "uint256"
        }
      ],
      "name": "Staked",
      "type": "event"
    },
    {
      "anonymous": false,
      "inputs": [
        {
          "indexed": true,
          "internalType": "address",
          "name": "user",
          "type": "address"
        },
        {
          "indexed": false,
          "internalType": "uint256",
          "name": "amount",
          "type": "uint256"
        }
      ],
      "name": "Withdrawn",
      "type": "event"
    },
    {
      "inputs": [],
      "name": "APR",
      "outputs": [
        {
          "internalType": "uint256",
          "name": "",
          "type": "uint256"
        }
      ],
      "stateMutability": "view",
      "type": "function"
    },
    {
      "inputs": [],
      "name": "SECONDS_IN_YEAR",
      "outputs": [
        {
          "internalType": "uint256",
          "name": "",
          "type": "uint256"
        }
      ],
      "stateMutability": "view",
      "type": "function"
    },
    {
      "inputs": [
        {
          "internalType": "address",
          "name": "",
          "type": "address"
        }
      ],
      "name": "balances",
      "outputs": [
        {
          "internalType": "uint256",
          "name": "",
          "type": "uint256"
        }
      ],
      "stateMutability": "view",
      "type": "function"
    },
    {
      "inputs": [
        {
          "internalType": "address",
          "name": "user",
          "type": "address"
        }
      ],
      "name": "calculateRewards",
      "outputs": [
        {
          "internalType": "uint256",
          "name": "",
          "type": "uint256"
        }
      ],
      "stateMutability": "view",
      "type": "function"
    },
    {
      "inputs": [],
      "name": "claimRewards",
      "outputs": [],
      "stateMutability": "nonpayable",
      "type": "function"
    },
    {
      "inputs": [
        {
          "internalType": "address",
          "name": "user",
          "type": "address"
        }
      ],
      "name": "getBalance",
      "outputs": [
        {
          "internalType": "uint256",
          "name": "",
          "type": "uint256"
        }
      ],
      "stateMutability": "view",
      "type": "function"
    },
    {
      "inputs": [
        {
          "internalType": "address",
          "name": "user",
          "type": "address"
        }
      ],
      "name": "getPendingRewards",
      "outputs": [
        {
          "internalType": "uint256",
          "name": "",
          "type": "uint256"
        }
      ],
      "stateMutability": "view",
      "type": "function"
    },
    {
      "inputs": [
        {
          "internalType": "address",
          "name": "",
          "type": "address"
        }
      ],
      "name": "lastUpdate",
      "outputs": [
        {
          "internalType": "uint256",
          "name": "",
          "type": "uint256"
        }
      ],
      "stateMutability": "view",
      "type": "function"
    },
    {
      "inputs": [],
      "name": "stake",
      "outputs": [],
      "stateMutability": "payable",
      "type": "function"
    },
    {
      "inputs": [
        {
          "internalType": "uint256",
          "name": "amount",
          "type": "uint256"
        }
      ],
      "name": "withdraw",
      "outputs": [],
      "stateMutability": "nonpayable",
      "type": "function"
    }
  ],
  "bytecode": "0x608060405234801561001057600080fd5b50610db2806100206000396000f3fe6080604052600436106100915760003560e01c806364ab86751161005957806364ab867514610148578063bd30558e14610185578063cb03fb1e146101b0578063f6ed2017146101ed578063f8b2cb4f1461022a57610091565b806327e235e3146100965780632e1a7d4d146100d3578063372500ab146100fc5780633a4b66f1146101135780635dcc93911461011d575b600080fd5b3480156100a257600080fd5b506100bd60048036038101906100b891906109c8565b610267565b6040516100ca9190610a0e565b60405180910390f35b3480156100df57600080fd5b506100fa60048036038101906100f59190610a55565b61027f565b005b34801561010857600080fd5b506101116104c4565b005b61011b6105f0565b005b34801561012957600080fd5b506101326107c7565b60405161013f9190610a0e565b60405180910390f35b34801561015457600080fd5b5061016f600480360381019061016a91906109c8565b6107cf565b60405161017c9190610a0e565b60405180910390f35b34801561019157600080fd5b5061019a6108ee565b6040516101a79190610a0e565b60405180910390f35b3480156101bc57600080fd5b506101d760048036038101906101d291906109c8565b6108f3565b6040516101e49190610a0e565b60405180910390f35b3480156101f957600080fd5b50610214600480360381019061020f91906109c8565b61090b565b6040516102219190610a0e565b60405180910390f35b34801561023657600080fd5b50610251600480360381019061024c91906109c8565b61091d565b60405161025e9190610a0e565b60405180910390f35b60006020528060005260406000206000915090505481565b600081116102c2576040517f08c379a00000000000000000000000000000000000000000000000000000000081526004016102b990610adf565b60405180910390fd5b806000803373ffffffffffffffffffffffffffffffffffffffff1673ffffffffffffffffffffffffffffffffffffffff168152602001908152602001600020541015610343576040517f08c379a000000000000000000000000000000000000000000000000000000000815260040161033a90610b4b565b60405180910390fd5b600061034e336107cf565b905081816000803373ffffffffffffffffffffffffffffffffffffffff1673ffffffffffffffffffffffffffffffffffffffff1681526020019081526020016000205461039b9190610b9a565b6103a59190610bce565b6000803373ffffffffffffffffffffffffffffffffffffffff1673ffffffffffffffffffffffffffffffffffffffff1681526020019081526020016000208190555042600160003373ffffffffffffffffffffffffffffffffffffffff1673ffffffffffffffffffffffffffffffffffffffff168152602001908152602001600020819055503373ffffffffffffffffffffffffffffffffffffffff166108fc839081150290604051600060405180830381858888f19350505050158015610471573d6000803e3d6000fd5b503373ffffffffffffffffffffffffffffffffffffffff167f7084f5476618d8e60b11ef0d7d3f06914655adb8793e28ff7f018d4c76d505d5836040516104b89190610a0e565b60405180910390a25050565b60006104cf336107cf565b905060008111610514576040517f08c379a000000000000000000000000000000000000000000000000000000000815260040161050b90610c4e565b60405180910390fd5b42600160003373ffffffffffffffffffffffffffffffffffffffff1673ffffffffffffffffffffffffffffffffffffffff168152602001908152602001600020819055503373ffffffffffffffffffffffffffffffffffffffff166108fc829081150290604051600060405180830381858888f1935050505015801561059e573d6000803e3d6000fd5b503373ffffffffffffffffffffffffffffffffffffffff167ffc30cddea38e2bf4d6ea7d3f9ed3b6ad7f176419f4963bd81318067a4aee73fe826040516105e59190610a0e565b60405180910390a250565b60003411610633576040517f08c379a000000000000000000000000000000000000000000000000000000000815260040161062a90610cba565b60405180910390fd5b60008060003373ffffffffffffffffffffffffffffffffffffffff1673ffffffffffffffffffffffffffffffffffffffff1681526020019081526020016000205411156106de576000610685336107cf565b9050806000803373ffffffffffffffffffffffffffffffffffffffff1673ffffffffffffffffffffffffffffffffffffffff16815260200190815260200160002060008282546106d59190610b9a565b92505081905550505b346000803373ffffffffffffffffffffffffffffffffffffffff1673ffffffffffffffffffffffffffffffffffffffff168152602001908152602001600020600082825461072c9190610b9a565b9250508190555042600160003373ffffffffffffffffffffffffffffffffffffffff1673ffffffffffffffffffffffffffffffffffffffff168152602001908152602001600020819055503373ffffffffffffffffffffffffffffffffffffffff167f9e71bc8eea02a63969f509818f2dafb9254532904319f9dbda79b67bd34a5f3d346040516107bd9190610a0e565b60405180910390a2565b6301e1338081565b6000806000808473ffffffffffffffffffffffffffffffffffffffff1673ffffffffffffffffffffffffffffffffffffffff168152602001908152602001600020540361081f57600090506108e9565b6000600160008473ffffffffffffffffffffffffffffffffffffffff1673ffffffffffffffffffffffffffffffffffffffff168152602001908152602001600020544261086c9190610bce565b905060006301e1338060646108819190610cda565b82600a6000808873ffffffffffffffffffffffffffffffffffffffff1673ffffffffffffffffffffffffffffffffffffffff168152602001908152602001600020546108cd9190610cda565b6108d79190610cda565b6108e19190610d4b565b905080925050505b919050565b600a81565b60016020528060005260406000206000915090505481565b6000610916826107cf565b9050919050565b60008060008373ffffffffffffffffffffffffffffffffffffffff1673ffffffffffffffffffffffffffffffffffffffff168152602001908152602001600020549050919050565b600080fd5b600073ffffffffffffffffffffffffffffffffffffffff82169050919050565b60006109958261096a565b9050919050565b6109a58161098a565b81146109b057600080fd5b50565b6000813590506109c28161099c565b92915050565b6000602082840312156109de576109dd610965565b5b60006109ec848285016109b3565b91505092915050565b6000819050919050565b610a08816109f5565b82525050565b6000602082019050610a2360008301846109ff565b92915050565b610a32816109f5565b8114610a3d57600080fd5b50565b600081359050610a4f81610a29565b92915050565b600060208284031215610a6b57610a6a610965565b5b6000610a7984828501610a40565b91505092915050565b600082825260208201905092915050565b7f43616e6e6f742077697468647261772030000000000000000000000000000000600082015250565b6000610ac9601183610a82565b9150610ad482610a93565b602082019050919050565b60006020820190508181036000830152610af881610abc565b9050919050565b7f496e73756666696369656e742062616c616e6365000000000000000000000000600082015250565b6000610b35601483610a82565b9150610b4082610aff565b602082019050919050565b60006020820190508181036000830152610b6481610b28565b9050919050565b7f4e487b7100000000000000000000000000000000000000000000000000000000600052601160045260246000fd5b6000610ba5826109f5565b9150610bb0836109f5565b9250828201905080821115610bc857610bc7610b6b565b5b92915050565b6000610bd9826109f5565b9150610be4836109f5565b9250828203905081811115610bfc57610bfb610b6b565b5b92915050565b7f4e6f207265776172647320617661696c61626c65000000000000000000000000600082015250565b6000610c38601483610a82565b9150610c4382610c02565b602082019050919050565b60006020820190508181036000830152610c6781610c2b565b9050919050565b7f43616e6e6f74207374616b652030204554480000000000000000000000000000600082015250565b6000610ca4601283610a82565b9150610caf82610c6e565b602082019050919050565b60006020820190508181036000830152610cd381610c97565b9050919050565b6000610ce5826109f5565b9150610cf0836109f5565b9250828202610cfe816109f5565b91508282048414831517610d1557610d14610b6b565b5b5092915050565b7f4e487b7100000000000000000000000000000000000000000000000000000000600052601260045260246000fd5b6000610d56826109f5565b9150610d61836109f5565b925082610d7157610d70610d1c565b5b82820490509291505056fea26469706673582212200c8e7f7c073ee9d6d687c6f5bdebcacf3bc4748645516103e5afd762b46cca6164736f6c63430008140033",
  "linkReferences": {},
  "deployedLinkReferences": {}
}